:020000040800F2
:10000000005000201D1000085D0200085F0200087B
:100010006102000863020008650200080000000099
:10002000000000000000000000000000670200085F
:1000300069020008000000006B0200086D02000861
:1000400065100008651000086510000865100008BC
:1000500065100008651000086510000865100008AC
:10006000651000086510000865100008651000089C
:10007000651000086510000865100008651000088C
:10008000651000086510000865100008651000087C
:10009000651000086510000865100008651000086C
:1000A000651000086510000865100008651000085C
:1000B000651000086510000865100008651000084C
:1000C000651000086510000865100008651000083C
:1000D000651000086510000865100008651000082C
:1000E0006510000865100008651000080000000099
:1000F0000000000000000000000000000000000000
:0C01000000000000000000005FF808F1A3
:10010C00034613F8012B002AFBD1181A013870474B
:10011C000348044B834202D0034B03B1184770478A
:10012C005C0000205C000020000000000548064B2D
:10013C001B1AD90F01EBA301491002D0034B03B1D9
:10014C00184770475C0000205C0000200000000095
:10015C0010B5064C237843B9FFF7DAFF044B13B103
:10016C000448AFF300800123237010BD5C00002015
:10017C00000000002416000808B5054B1BB105490A
:10018C000548AFF30080BDE80840FFF7CFBF00BFC4
:10019C0000000000600000202416000830B587B075
:1001AC0000240294039404940594144B9A6942F02D
:1001BC0010029A619A6902F010020092009A9A69F0
:1001CC0042F004029A619B6903F004030193019BC2
:1001DC000B4D22464FF40051284600F0E1FC4FF441
:1001EC00005302930123039304940223059302A961
:1001FC00284600F0C7FB07B030BD00BF001002401E
:10020C000010014008B50548054B036000F04EF89E
:10021C0000B908BD00F035FDFBE700BF78000020F9
:10022C00003002400268094B9A4200D0704782B0FD
:10023C00A3F500535A6942F040025A615B6903F01E
:10024C0040030193019B02B0704700BF0030024095
:10025C00FEE7FEE7FEE7FEE7FEE7704770477047F4
:10026C0008B500F06BF808BD82B00E4B9A6942F0ED
:10027C0001029A619A6902F001020092009ADA690D
:10028C0042F08052DA61DB6903F080530193019BE9
:10029C00054A536823F0E06343F00073536002B0E7
:1002AC00704700BF001002400000014058B110B56B
:1002BC00044643791BB101236371002010BD037107
:1002CC00FFF7B0FFF7E701207047000010B50446B8
:1002DC000E4B1A784FF47A73B3FBF2F30C4A106896
:1002EC00B0FBF3F000F0B8FC68B90F2C01D9012079
:1002FC000AE0002221464FF0FF3000F09DFC054B38
:10030C001C60002000E0012010BD00BF0000002098
:10031C00080000200400002008B5074A136843F0C9
:10032C0010031360032000F075FC0F20FFF7CEFFC5
:10033C00FFF79AFF002008BD00200240034A116815
:10034C00034B1B780B441360704700BF80000020E8
:10035C0000000020014B1868704700BF800000208F
:10036C0038B50446FFF7F6FF0546B4F1FF3F02D05F
:10037C00044B1B781C44FFF7EDFF401BA042FAD343
:10038C0038BD00BF0000002082B0084B1B68084A33
:10039C00A2FB03235B0A00FB03F3019300BF019B49
:1003AC005A1E0192002BF9D102B0704708000020B0
:1003BC00D34D6210002800F0F18170B582B0044674
:1003CC00036813F0010F2CD0994B5B6803F00C03FE
:1003DC00042B1DD0964B5B6803F00C03082B12D03A
:1003EC006368B3F5803F41D0002B55D103F18043B6
:1003FC0003F504331A6822F480321A601A6822F466
:10040C0080221A6037E08A4B5B6813F4803FE7D098
:10041C00874B1B6813F4003F03D06368002B00F07C
:10042C00BF81236813F0020F75D0814B5B6813F00A
:10043C000C0F5FD07E4B5B6803F00C03082B54D081
:10044C002369002B00F08A807A4B01221A60FFF797
:10045C0081FF0546764B1B6813F0020F75D1FFF731
:10046C0079FF401B0228F5D903209EE1704A1368DE
:10047C0043F480331360636843B3FFF76BFF0546A7
:10048C006B4B1B6813F4003FCBD1FFF763FF401B92
:10049C006428F5D9032088E1B3F5A02F09D0644B6B
:1004AC001A6822F480321A601A6822F480221A60C8
:1004BC00E1E703F18043A3F53C331A6842F4802250
:1004CC001A601A6842F480321A60D4E7FFF742FFD0
:1004DC000546574B1B6813F4003FA2D0FFF73AFFB9
:1004EC00401B6428F5D903205FE1514B5B6813F482
:1004FC00803FA5D14E4B1B6813F0020F03D023692C
:10050C00012B40F04F814A4A136823F0F8036169CC
:10051C0043EAC1031360236813F0080F33D0A369B7
:10052C00002B5CD0434B0122C3F88024FFF712FF51
:10053C0005463F4B5B6A13F0020F21D1FFF70AFF10
:10054C00401B0228F5D903202FE1394A136823F008
:10055C00F803616943EAC1031360DCE7354B002201
:10056C001A60FFF7F7FE0546314B1B6813F0020FBC
:10057C00D1D0FFF7EFFE401B0228F5D9032014E180
:10058C000120FFF701FF236813F0040F00F09680A1
:10059C00274BDB6913F0805F34D1254BDA6942F0CD
:1005AC008052DA61DB6903F080530193019B0125D2
:1005BC00214B1B6813F4807F26D0E368012B3DD0C0
:1005CC00002B53D103F1804303F504331A6A22F054
:1005DC0001021A621A6A22F004021A6233E0154B05
:1005EC000022C3F88024FFF7B5FE0546104B5B6A6A
:1005FC0013F0020FC7D0FFF7ADFE401B0228F5D950
:10060C000320D2E00025D3E70B4A136843F4807330
:10061C001360FFF79FFE0646074B1B6813F4807FA1
:10062C00CBD1FFF797FE801B6428F5D90320BCE0E3
:10063C000010024000004242007000405F4A136A02
:10064C0043F001031362E36833B3FFF783FE0646FE
:10065C005A4B1B6A13F0020F2FD1FFF77BFE801B46
:10066C0041F288339842F3D903209EE0052B09D040
:10067C00524B1A6A22F001021A621A6A22F0040220
:10068C001A62E0E74D4B1A6A42F004021A621A6AC7
:10069C0042F001021A62D6E7FFF75CFE0646474BB2
:1006AC001B6A13F0020F08D0FFF754FE801B41F2B7
:1006BC0088339842F3D9032077E0E5B9E369002B3E
:1006CC0072D03E4A526802F00C02082A56D0022B15
:1006DC0017D03B4B00221A66FFF73CFE0446374B03
:1006EC001B6813F0007F47D0FFF734FE001B022875
:1006FC00F5D9032059E0314AD36923F08053D361F3
:10070C00DCE72F4B00221A66FFF724FE05462B4B25
:10071C001B6813F0007F06D0FFF71CFE401B02285D
:10072C00F5D9032041E0236AB3F5803F1AD0234961
:10073C004B6823F47413226A606A024313434B60C0
:10074C001F4B01221A66FFF705FE04461B4B1B6864
:10075C0013F0007F0ED1FFF7FDFD001B0228F5D929
:10076C00032022E0154A536823F40033A1680B439D
:10077C005360DCE7002018E0002016E0012B16D0B7
:10078C000E4B5B6803F48031226A914211D103F461
:10079C007013626A93420ED1002006E0012070476C
:1007AC00012002E0012000E0002002B070BD012019
:1007BC00FBE70120F9E70120F7E700BF001002403A
:1007CC00000042420F4B5B6803F00C02082A01D078
:1007DC000D487047C3F383420C49885C13F4803F87
:1007EC000BD0084B5B68C3F34043094AD35C064A01
:1007FC0002FB00F0B0FBF3F07047064B03FB00F07C
:10080C00704700BF0010024000127A00401600082A
:10081C003C16000800093D00002800F0A08070B5CF
:10082C000D460446524B1B6803F007038B420BD258
:10083C004F4A136823F007030B431360136803F04C
:10084C0007038B4240F08D80236813F0020F17D002
:10085C0013F0040F04D0474A536843F4E063536029
:10086C00236813F0080F04D0424A536843F46053D2
:10087C005360404A536823F0F003A1680B43536064
:10088C00236813F0010F31D06368012B20D0022BA9
:10089C0025D0384A126812F0020F64D035494A68E4
:1008AC0022F0030213434B60FFF754FD0646314B15
:1008BC005B6803F00C036268B3EB820F16D0FFF792
:1008CC0049FD801B41F288339842F0D9032045E062
:1008DC00284A126812F4003FE0D101203EE0254A7C
:1008EC00126812F0007FD9D1012037E0204B1B6831
:1008FC0003F00703AB420AD91D4A136823F0070320
:10090C002B431360136803F00703AB422DD123680C
:10091C0013F0040F06D0174A536823F4E063E16820
:10092C000B435360236813F0080F07D0114A536828
:10093C0023F46053216943EAC1035360FFF742FF7C
:10094C000C4B5B68C3F303130B4AD35CD8400B4BC3
:10095C0018600B4B1868FFF7B9FC002070BD012024
:10096C0070470120FAE70120F8E70120F6E700BF05
:10097C000020024000100240501600080800002021
:10098C000400002070B582B00024A446A2E07E4D85
:10099C00AB4210D007D97D4DAB420CD005F580355C
:1009AC00AB4208D013E0A5F58015AB4203D005F59A
:1009BC007025AB4207D18B68002B55D0012B4ED044
:1009CC004261082403E0A5F58015AB42F3D0BEF1DB
:1009DC00FF0F4BD806464FEA8C0233680F25954023
:1009EC0023EA050304FA02F2134333604B6813F055
:1009FC00805F6DD0664B9A6942F001029A619B69E7
:100A0C0003F001030193019B4FEA9C02951C614B7F
:100A1C0053F825600CF00305AD000F23AB4026EA1C
:100A2C0003065D4B984228D003F58063984200F092
:100A3C008D8003F58063984200F08A8003F5806313
:100A4C00984218D0042319E0CC68C0E7CC68043471
:100A5C00BDE7CC680834BAE7CC680C34B7E7026160
:100A6C000824B4E70024B2E70424B0E7061DACF177
:100A7C0008029200B1E7032300E00023AB403343AC
:100A8C000232444D45F822304B6813F4801F61D07C
:100A9C00424A936843EA0E0393604B6813F4001FB9
:100AAC005ED03E4AD36843EA0E03D3604B6813F41E
:100ABC00003F5BD0394A536843EA0E0353604B68DE
:100ACC0013F4803F58D0354A136843EA0E03136081
:100ADC000CF1010C0B6833FA0CF253D0012202FA20
:100AEC000CF203EA020E32EA0303F1D14B68122B2B
:100AFC003FF64DAF122B3FF66AAF01A555F823F028
:100B0C00C3090008550A00085F0A0008710A0008AA
:100B1C00DB090008DB090008DB090008DB09000819
:100B2C00DB090008DB090008DB090008DB09000809
:100B3C00DB090008DB090008DB090008DB090008F9
:100B4C00DB090008590A0008650A0008012395E72B
:100B5C00022393E7114A936823EA0E0393609CE700
:100B6C000E4AD36823EA0E03D3609FE70B4A5368FF
:100B7C0023EA0E035360A2E7084A136823EA0E0324
:100B8C001360A5E702B070BD000022100000311008
:100B9C000010024000000140000801400004014028
:100BAC000AB101617047090401617047002808DB34
:100BBC000901C9B200F1604000F5614080F80013F2
:100BCC00704700F00F000901C9B2014B195470476E
:100BDC0014ED00E000B500F00700C0F1070CBCF10B
:100BEC00040F28BF4FF0040C031D062B0FD9C31E96
:100BFC004FF0FF3E0EFA0CF021EA000199400EFA7C
:100C0C0003FE22EA0E0241EA02005DF804FB002317
:100C1C00EEE70000074AD36823F4E0631B041B0CC7
:100C2C00000200F4E060034343F0BF6343F400337D
:100C3C00D360704700ED00E010B50446054BD86852
:100C4C00C0F30220FFF7C6FF01462046FFF7AEFFB8
:100C5C0010BD00BF00ED00E00138B0F1807F0BD279
:100C6C004FF0E0235861054AF02182F82310002050
:100C7C00986107221A6170470120704700ED00E06F
:100C8C00704772B6FEE700B591B02822002106A885
:100C9C0000F0CAFB00230193029303930493059382
:100CAC000223069301220A9210220B920D934FF409
:100CBC0060130F9306A8FFF77DFB80B90F230193F8
:100CCC0002210291002303934FF480620492059356
:100CDC0001A8FFF7A1FD20B911B05DF804FBFFF7E7
:100CEC00D0FFFFF7CEFF10B504460068A168091AC3
:100CFC0008B100F0B2F9204610BD70B50646046884
:100D0C00456803E0204600F0EDF91834A542F9D10E
:100D1C003046FFF7E8FF304670BD70B582B0044630
:100D2C000E46551A01950F2D0DD800942A463146C2
:100D3C00206800F0EBF900220092019B63602168AF
:100D4C00CA5402B070BD002201A900F0A9F92060BC
:100D5C00019BA360E9E7000038B500F108030360CC
:100D6C0069B104460D460846FFF7CAF94FF0000377
:100D7C002A1829462046FFF7D0FF204638BD0148E7
:100D8C0000F084F9601600084068183870470000BD
:100D9C0030B585B08446019144680368E31ADB10D2
:100DAC00114803FB00F0114D2D1A8D4213D3039003
:100DBC00814213D803AA12681044DCF80030E41AFC
:100DCC00E410094B03FB04F4A04209D3074B9842EF
:100DDC0008D805B030BD104600F05BF901AAEAE76F
:100DEC000248F6E70148F4E7ABAAAAAA55555505FF
:100DFC0008B5084B994205D801EB4101C80000F039
:100E0C002EF908BD044B994201D900F03CF900F0D1
:100E1C0037F900BF55555505AAAAAA0A70B504465C
:100E2C000E46154608E02146284600F0B9F9204642
:100E3C0000F058F918341835B442F4D1284670BD76
:100E4C002DE9F84F04460E4691461C4A0121FFF746
:100E5C009FFFD4F80080D4F804A0A6EB080B07463B
:100E6C0050B3002201462046FFF7C2FF0546494613
:100E7C0005EB0B0000F094F923462A463146404618
:100E8C00FFF7CCFF234600F1180251463046FFF71E
:100E9C00C5FF0646A168A1EB0801B8F1000F02D00E
:100EAC00404600F0DAF82560666007EB470705EB73
:100EBC00C705A560BDE8F88F0025D8E79416000893
:100ECC0010B504464068A368984208D000F068F951
:100EDC006368183363602046FFF756FF10BD0A465F
:100EEC0001462046FFF7ACFFF5E7000030B5B5B082
:100EFC00FFF712FAFFF7C7FEFFF750F9FFF782F979
:100F0C0016E021460AA800F0B8F96420FFF728FA89
:100F1C000AA800F0E7F81834AC42F2D14FF4FA709A
:100F2C00FFF71EFA01A8FFF7E8FE04A800F0DAF8B4
:100F3C002F4C00224FF400512046FFF731FE642065
:100F4C00FFF70EFA01224FF400512046FFF728FE5E
:100F5C006420FFF705FA10AA264904A8FFF7FCFE47
:100F6C00254904A800F058F9002301930293039338
:100F7C0017AA224911A8FFF7EFFE11A901A8FFF744
:100F8C009FFF11A800F0AEF81EAA1D4918A8FFF784
:100F9C00E3FE18A901A8FFF793FF18A800F0A2F828
:100FAC0025AA18491FA8FFF7D7FE1FA901A8FFF70C
:100FBC0087FF1FA800F096F82CAA134926A8FFF764
:100FCC00CBFE26A901A8FFF77BFF26A800F08AF824
:100FDC0033AA0E492DA8FFF7BFFE2DA901A8FFF7D4
:100FEC006FFF2DA800F07EF8019C029D94E700BFD6
:100FFC0000100140B0160008BC160008C816000806
:10100C00D8160008E8160008F8160008081700089B
:10101C00FFF736FE0B480C490C4A002302E0D4586B
:10102C00C4500433C4188C42F9D3094A094C002328
:10103C0001E013600432A242FBD300F051FAFFF737
:10104C0055FF7047000000205C0000204C17000882
:10105C005C000020D4010020FEE700F01CB9012840
:10106C0038BF012010B50446204600F027F900B126
:10107C0010BD00F013F908B900F018F98047F3E738
:10108C0008B500F013F908B500F010F908B500F038
:10109C000DF908B500F00AF90AB100F047BA70472B
:1010AC0008B50B68B3F1804F02D30D48FFF7F1FF81
:1010BC0093420BD9B3EB420F4FEA420006D2B0F188
:1010CC00804F2ABF6FF0404308600B600868013006
:1010DC0001D5FFF7D5FFBDE80840FFF7C0BF00BF43
:1010EC0015170008034653F8080B984201D000F07E
:1010FC00D2B87047406801F180410139091A914218
:10110C0008B502D21846FFF7C4FF08BD012A10B477
:10111C0003D10A7810BC0270704710BCFFF7BCBF3B
:10112C0008B5521AFFF7F2FF08BD2DE9F3470A9EE6
:10113C001F46436801EB0208B21A1A44A3EB0809D4
:10114C000346019253F8082B0D469A420CBF0F220E
:10115C00826801A90446FFF7A3FF82461DB12A4607
:10116C002168FFF7D3FF37B12EB1324639460AEB6F
:10117C000500FFF7CBFFB9F1000F07D0216835440C
:10118C004A4641440AEB0500FFF7C0FF2046FFF733
:10119C00A9FF019BC4F800A0A36002B0BDE8F087D2
:1011AC0070B505460E460830286056F8083B0C46CC
:1011BC009E424A680BD131460132FFF76DFF6368DE
:1011CC0028466B60002323722660636070BD2B6021
:1011DC008B68AB60F3E773B50446234653F8086B92
:1011EC0040689E420CBF0F23A36885189D420AD805
:1011FC0012B13044FFF78AFF002220462368656055
:10120C005A5502B070BD0B46009201460022204692
:10121C00FFF78BFFF0E7000070B5044608460D465B
:10122C00FEF76EFF0646024600212046044BFFF7F0
:10123C0061FF324629462046FFF7CDFF70BD00BF47
:10124C002D17000873B5531A0F2B04460D4616467E
:10125C00019306D9002201A9FFF722FF019B206010
:10126C00A360324629462068FFF75AFF0021019BF4
:10127C0022686360D15402B070BD10B5044600F111
:10128C0008020260D1E900124FF000030A44FFF794
:10129C00D9FF204610BD00F019B80000024B1868A9
:1012AC00BFF35B8F704700BF84000020062008B599
:1012BC0000F0EAF8012000F0ADF90000024B014605
:1012CC00186800F02DB800BF0C000020024B01463E
:1012DC00186800F039B900BF0C00002070B50F4E33
:1012EC000C463168054611B900F0EAF83060214629
:1012FC00284600F0E5F8431C03D14FF0FF3420469C
:10130C0070BDC41C24F00304A042F8D0211A284656
:10131C0000F0D6F80130F2D1EFE700BF88000020D2
:10132C002DE9F041CD1C25F0030508350C2D38BFF7
:10133C000C25002D064601DBA94204D90C23336091
:10134C000020BDE8F081314F00F062F83B681C468C
:10135C0044BB29463046FFF7C1FF431C044650D11D
:10136C003C682146002941D1002C44D023683046EA
:10137C0004EB030800F0A4F880453CD1216830460A
:10138C006D1A2946FFF7AAFF013034D023682B448D
:10139C0023603B68002B36D05A68A24229D1002228
:1013AC005A600EE02268521B1DD40B2A16D9611903
:1013BC00A342256018BF5960636808BF3960625149
:1013CC004B60304600F02AF804F10B00231D20F08E
:1013DC000700C21AB5D01B1AA350B2E7A342626829
:1013EC00DED13A60EDE723466468B1E70C46496804
:1013FC00B8E71346CEE70C233046336000F00EF806
:10140C009EE70560DDE75B60FFDE00BF8C0000201F
:10141C00014800F089B800BFCC010020014800F061
:10142C0084B800BFCC01002003460244934200D193
:10143C00704703F8011BF9E71F2938B505460C4620
:10144C0004D9162303604FF0FF3038BDC26B12B1C4
:10145C0052F821304BB9284600F030F822460146AC
:10146C002846BDE8384000F017B8012B0AD0591CAB
:10147C0003D1162303600120E7E70021204642F840
:10148C00241098470020E0E7024B01461868FFF74C
:10149C00D3BF00BF0C00002038B50023064D044616
:1014AC00084611462B6000F09FF8431C02D12B68B4
:1014BC0003B1236038BD00BFC801002000F08CB818
:1014CC0038B50023054D044608462B6000F094F80F
:1014DC00431C02D12B6803B1236038BDC801002026
:1014EC0070B500260C4D0D4C641BA410A64209D1FE
:1014FC0000F092F800260A4D0A4C641BA410A64278
:10150C0005D170BD55F8043B98470136EEE755F808
:10151C00043B98470136F2E74417000844170008CB
:10152C004417000848170008704770470A44914256
:10153C0000F1FF3300D1704710B511F8014B914207
:10154C0003F8014FF9D110BD38B50546002940D03C
:10155C0051F8043C0C1F002BB8BFE418FFF758FFE0
:10156C001C4A136833B9636014602846BDE83840E0
:10157C00FFF754BFA34208D9206821188B4201BF42
:10158C0019685B6809182160EDE71A465B680BB1B6
:10159C00A342FAD911685018A0420BD1206801441B
:1015AC00501883421160E0D118685B6808441060E1
:1015BC005360DAE702D90C232B60D6E72068211898
:1015CC008B4201BF19685B68091821606360546025
:1015DC00CBE738BD8C0000205822024B4FF0FF3077
:1015EC001A607047C80100205822024B4FF0FF30A0
:1015FC001A607047C8010020044A05491368002B83
:10160C0008BF0B461844106018467047D0010020E4
:10161C00D8010020FEE700BFF8B500BFF8BC08BC3D
:10162C009E467047F8B500BFF8BC08BC9E46704794
:10163C000102000002030405060708090A0B0C0D41
:10164C000E0F101000000000000000000102030447
:10165C000607080962617369635F737472696E6768
:10166C003A20636F6E737472756374696F6E206663
:10167C00726F6D206E756C6C206973206E6F7420A8
:10168C0076616C6964000000766563746F723A3A37
:10169C005F4D5F7265616C6C6F635F696E736572D1
:1016AC007400000068656C6C6F20632B2B000000CD
:1016BC0063707064656D6F210000000068656C6C70
:1016CC006F20632B2B20310A0000000068656C6CC6
:1016DC006F20632B2B20320A0000000068656C6CB5
:1016EC006F20632B2B20330A0000000068656C6CA4
:1016FC006F20632B2B20340A0000000068656C6C93
:10170C006F20632B2B20350A0062617369635F7352
:10171C007472696E673A3A5F4D5F637265617465A6
:10172C000062617369635F737472696E673A3A61E0
:08173C007070656E640000008E
:041744008501000813
:041748005D01000837
:10174C0001000000100000000024F4001000002034
:10175C000000000090000020F80000206001002034
:10176C00000000000000000000000000000000006D
:10177C00000000000000000000000000000000005D
:10178C00000000000000000000000000000000004D
:0C179C0000000000000000000000000041
:040000050800101DC2
:00000001FF
